:020000040000FA
:1000000020040020A9070000A10000009D000000BE
:100010009D0000009D0000009D0000009D0000006C
:100020000000000000000000000000009D00000033
:100030009D000000000000009D0000009D000000E9
:10004000370D0000090E0000BF0D0000CD0C0000B0
:040050004000350037
:020000040000FA
:1000540040EA01039B0703D009E008C9121F08C046
:10006400042AFAD203E011F8013B00F8013B521EC6
:10007400F9D27047D2B201E000F8012B491EFBD23D
:1000840070470022F6E710B513460A46044619469F
:10009400FFF7F0FF204610BD00BE70472DE9F04188
:1000A40046F22018C4F20008B8F80000B8F820108E
:1000B40040F2404501EA0006B7B20024C2F200054E
:1000C40027FA04F0C00704D055F8241009B12046DB
:1000D40088470134102CF3D1A8F81060BDE8F081F2
:1000E400B0B543F22404C4F208040025C820012159
:1000F400257100F082F8257020780028FCD1207842
:1001040040F00200207000BF20788007FCD400205B
:1001140004F8020C14F8020C0028FBD1002004F1AE
:100124001C0100BF11F8102002F07F0201F810201A
:1001340011F91020002AFBD401300328F2D1012048
:1001440000F00BF84EF2BB420021C4F20102012080
:100154001170BDE8B04000F027B880B50122EFF37C
:10016400108182F3108840F28842C2F2000232F811
:1001740010308BB94EF2FE3C40F68873C4F2010C89
:10018400C0F20003BCF800E033F8103043EA0E0379
:1001940043F42543ACF8003032F81030013322F830
:1001A400103081F3108880BD0122EFF3108182F3B7
:1001B400108840F28842C2F2000232F8103023B1B3
:1001C40032F81030013B22F8103032F810208AB98E
:1001D4004EF2FE3CC4F2010C40F68872BCF80030CA
:1001E400C0F2000232F8100043F4254222EA000073
:1001F400ACF8000081F31088704740F23C42C2F230
:100204000002126801FB00F041F20021C0F27A0101
:100214008A420FD340F6FF01C0F23D0111444DF66E
:100224008362C4F21B32A1FB0212110DA0FB010177
:10023400E9B11FE04CF60021C3F69A3148F63813B1
:10024400C0F24103B1FBF2F1984207D24FF47A7243
:1002540000FB02F0B0FBF1F0800808E08900B0FB7D
:10026400F1F0984206D24FF47A7100FB01F028B104
:1002740000F01BBC4FF0FF3000F017BC7047704714
:10028400022818BF704740F2804040F63471C2F231
:100294000000C0F20001AFF3008080B545F25422A3
:1002A400C5F24F020260084600F08EFC002080BDBB
:1002B4008A0701D4062206E0026A937803F07B03DE
:1002C400937000220261C9071CBF0022826110469C
:1002D400704710B5C2690123127803FA02F212F0D2
:1002E400060F02D00A78120723D4026A4FF0000ED8
:1002F40092F802C00CF00B039370036A8A78C0F87A
:100304000CE05A704A781C7802F0030204F0FC04F2
:1003140022441A70CA789A74DA79097802F0A3022E
:1003240001F05C011144D971006A0CF07B01817009
:1003340001E04FF0030E704610BD8446C0E9091376
:100344000020CCF82C207047026A00214160917093
:10035400C1694EF2801C4A69012102F01F0301FAAF
:1003640003F35209CEF2000C4CF82230BFF34F8F46
:10037400BFF36F8FC269D26A02F01F0301FA03F35D
:1003840052094CF82230BFF34F8FBFF36F8FC2690D
:10039400D26902F01F0301FA03F352094CF8223028
:1003A400BFF34F8FBFF36F8FC269526A02F01F030E
:1003B40001FA03F352094CF82230BFF34F8FBFF315
:1003C4006F8FEFF3108281F3108844F20403C06945
:1003D400C4F2080300784FF0004C19682CFA00F0BE
:1003E40008431860186882F31088002070474FF0A3
:1003F400FF3200200A604A6070470A780123934064
:1004040013F0060F05D00B6CDB681B781B0700F19B
:10041400E0802DE9F04748F20003C4F2110343EAF7
:100424000222D1E90E364FF0000843628378C66297
:1004340023F003035E1C86704E68026280F800801D
:10044400C161C0F8288016B943F002038370CF6AF3
:100454004EF2001C07F01F034FF0010ECEF2000C09
:100464000EFA03F30CF180047E0991F8285044F845
:100474002630BFF34F8F46F2003AC4F2000ABFF3AE
:100484006F8F5AF827602A0126F480364AF82760CD
:100494000CF540755AF82760EA554A6940F2D0498C
:1004A40002F01F06C2F200090EFA06F6530949F8D3
:1004B40027000F7C44F82360BFF34F8FBFF36F8F87
:1004C4005AF822303E0123F480334AF822305AF895
:1004D4002230AE5449F82200CA690B7E02F01F068E
:1004E4000EFA06F6570944F82760BFF34F8FBFF39F
:1004F4006F8F5AF822601B0126F480364AF8226076
:100504005AF82260AB5449F822004A6A91F8203024
:1005140002F01F060EFA06F6570944F82760BFF3E7
:100524004F8FBFF36F8F5AF822401B0124F480349D
:100534004AF822405AF82240AB5449F82200EFF31B
:1005440010828EF3108844F204050B78C4F2080577
:100554004FF000442E6824FA03F326EA03032B60C9
:100564002B6882F31088026A82F80280026A82F899
:100574000480026A82F80980026A82F80A80026AA8
:1005840082F80B80026AA2F81A800A780EFA02F343
:1005940040F2F932134202D0036A4024DC74036A45
:1005A40006241C770B780EFA03F3134203D0026A75
:1005B4004FF478439382D1E90163CA684FEAC202D7
:1005C40042EA03123EB1032E08BF42F04002F22673
:1005D40002E00322ADE0E226036A02271A70026AEF
:1005E400002596710A6C936907EA4307082B036A8E
:1005F40008BF0A275F73066AD2E9013735721668A5
:10060400DB0126F00106022EDEB267F345160AD19D
:10061400036AFF275F701268022A026A08BF46F065
:100624001006D67117E0036ADE71D268036A977800
:100634005F7057781E7807F0030706F0FC0637440E
:100644001F70D7789F74DF79127807F0A30702F040
:100654005C023A44DA710022C369C0E90322C0E9AA
:100664000522D1F840E05B699EF800105AF8234057
:1006740003F01F0524F480344AF823405AF8234039
:10068400012404FA05F60CF5C0755B09BFF35F8F0E
:1006940045F823604CF82360C369DB6A5AF8236089
:1006A40026F480364AF823605AF8236003F01F06C4
:1006B40004FA06F65B09BFF35F8F45F823604CF834
:1006C4002360C369DB695AF8236026F480364AF84C
:1006D40023605AF8236003F01F0604FA06F65B0948
:1006E400BFF35F8F45F823604CF82360C3695B6AEE
:1006F4005AF8236026F480364AF823605AF82360B7
:1007040003F01F06B4405B09BFF35F8F45F8234035
:100714004CF823401C23076A63F39F01B970DEF889
:10072400141044F65513C5F24333C0E90131BDE852
:10073400F0471046704703460020C3E9051270478E
:1007440002468069086000210020916170470620FC
:1007540070470620704780B5D0F820E09EF802C0AC
:100764000CF07B038EF80230837803F00303A2EBD2
:10077400030C0B44026AC0E9033C937843F0800302
:100784009370827802F00302022A05D10988006A74
:1007940041F47E41C18102E00978006AC170002001
:1007A40080BD000000F01AF800F008FAFEE74EF2EF
:1007B4002000C4F201008179006840F22042C2F2B4
:1007C4000002C0F3026052F8211021FA00F040F256
:1007D4003C41C2F2000108607047000010B54EF6BB
:1007E4000850CEF200004FF47001C0F8801040F2BF
:1007F4000001C0F20001016000200024FFF740FD69
:1008040000F06CF80120FFF73BFD40F22000C2F23B
:10081400000080F30A88002000F032F8FFF7C7FFD9
:10082400FFF75EFC0320FFF798FC40F61050C4F27B
:1008340008004FF6FF7100BF20F8141001340C2C8F
:10084400FAD10320FFF7B0FC0320FFF786FC042055
:10085400C4F20E000021016041608160C160032088
:10086400FFF7A2FC0220FFF70BFD012000F008F8BF
:1008740000F0D6F80020BDE8104000F0D0B8000029
:10088400F0B581B040F66075C0F200052E680446EC
:1008940076B16868071D00BF7879844204D157E9AE
:1008A4000101091AFFF7EDFB013E07F10C07F3D133
:1008B400AE6886B1E86800F1080500BF6879844233
:1008C40005D155E902022968121AFFF7C1FB013E5E
:1008D40005F11005F2D101B0F0BD00002DE9F041A1
:1008E4004EF2FE34C4F201044AF203504CF20015F5
:1008F4002080C4F201050120A88000BFA888002838
:10090400FCD147F200010120C4F200012880886074
:10091400086040F2204742F6005041F20022C2F241
:100924000007C0F23110C0F27A02C7E9000243F2B4
:1009340000604FF40041C0F26E10C7E902104CF29F
:100944000020C0F6EB304EF220063961C4F20106F5
:100954007861B079316857F82000C1F3026140F240
:100964003C48C840C2F20008C8F800000020607586
:10097400092086F8820094F8820018B994F883005C
:10098400800747D094F8820050B9012084F882008F
:10099400C8200121FFF731FC94F882000128FBD123
:1009A400002084F8830084F882000020B07400BF23
:1009B400307F0007FCD543F2021030810020B07272
:1009C400307F8006FCD541F221210320C2F20101CF
:1009D400287731600521B171B179326857F8211057
:1009E400C2F30262F023D140C8F8001042F20801B9
:1009F400C4F20001F1220A7101220A700B713274EF
:100A040086F83220B0778320B0774FF425402080D9
:100A1400BDE8F0814FF47A70FFF731FCC5E7704709
:100A240070B584B048F248060320C4F20006FFF70C
:100A340094FB6FF0FF0040F6787430604FF0FF30A5
:100A44000021C0F200040122CDE9020054F8213053
:100A540002FA01F5002B18BFA84301310429F5D18E
:100A64004EF280320190002001A9CEF2000200BFB4
:100A740051F8203006EB8005AB6242F8203001309B
:100A84000328F5D10320FFF78FFB46F20031002045
:100A9400C4F2000154F820200AB141F820200130AA
:100AA400042804BF04B070BDF4E701380028FCD169
:100AB400704700002DE9F04F81B0044600880028FB
:100AC4005AD043F240084EF2BB4B0025C4F208084A
:100AD4000FF2AC0AC4F2010B4FF00109002700BF6A
:100AE40060685AF8272000EBC500416891423CD168
:100AF40000689BF8001000F0B85009FA07F6B0F14E
:100B0400807F06EA010015D150B90120FFF725FBCB
:100B14009BF8000030438BF800000120FFF744FBF2
:100B240018F91700002820D418F8170040F08000A6
:100B340015E000BF50B10120FFF70FFB9BF8000048
:100B4400B0438BF800000120FFF72EFB18F91700C3
:100B5400B0F1FF3F09DC18F8170000F07F0008F837
:100B64001700C8200121FFF748FB0137032FB7D135
:100B7400208801358542B1D301B0BDE8F08F00BFB4
:100B8400020400000304000004040000B0B540F6B1
:100B94009470C0F200008568D0E900412A682046BC
:100BA4009047AB6802A120460822BDE8B040184730
:100BB40031303061736B0D0A0000000080B5FFF71F
:100BC400E5FF002080BD000070B50446FFF772FF0A
:100BD40040F2944CEFF31080012181F31088C2F2AB
:100BE400000CDCF8001039B940F60351C4F20801D6
:100BF40000220A7040220A70DCF800100131CCF89F
:100C0400001080F31088208818B340F6000E0021ED
:100C1400C4F2080E606800EBC10250F8313052682B
:100C2400DD034FEA1220D2B20BD50EEB801555F836
:100C3400226026F4803645F8226023F4803645F895
:100C440022600EEB8010013140F82230208881426E
:100C5400E0D30120EFF3108180F31088DCF800006A
:100C640020B1DCF800000138CCF80000DCF800000A
:100C740038B940F60350C4F2080000220270802202
:100C8400027081F3108870BDB0B584B00446806AE8
:100C940040B1D0E900CED0E90253CDE900CECDE990
:100CA400025300E06846E369D4F824C01B78E56A7F
:100CB400C0E90032C0E90215E047A06A10B19DE81E
:100CC4002E002EC004B0B0BDB0B5EFF303806FF3B7
:100CD4005F20A0F1100540F2D040C2F2000050F8AD
:100CE40025008178036A01F00301022912BF5979B2
:100CF400198A6FF35F211A79D40602F0380203D5FA
:100D04001C7FE40708BF40321C7904F0C7041C713F
:100D1400436A0BB1FFF7B8FF46F20030C4F200009B
:100D240050F8251021F4803140F8251050F82500A2
:100D3400B0BD10B582B0EFF3038040F2FC7101EA5C
:100D4400800046F2C021C4F20001425822F48032ED
:100D5400425040F2D042C2F200024158104450F8CE
:100D6400404CA07800F00302206A022A12BF4179A5
:100D7400018A6FF35F21A069019198B1606901A9AB
:100D8400FFF766F9A0786169A26900F003000144E5
:100D9400101A6161A0610ED1606A60B12046002121
:100DA400012203E0606A30B12046042202B0BDE8AB
:100DB4001040FFF769BF02B010BD10B5EFF3038018
:100DC4006FF35F20A0F1100440F2D040C2F20000A3
:100DD40050F82400016A8A7802F07B028A70416A22
:100DE40019B100210222FFF74FFF46F20030C4F28E
:100DF400000050F8241021F4803140F8241050F8F9
:100E0400240010BDEFF3038040F2FC7101EA80007E
:100E140046F2C021C4F20001425822F4803242500A
:100E240040F2D042C2F200024158104450F8400C43
:100E3400C1694A6B0169C2B9C1B1817801F0030289
:100E4400C168022A05D10988026A41F47E41D18130
:100E540002E00978026AD1708178026901F0030323
:100E6400D11AC26801611A44C26071B9016A8A78F0
:100E740002F07B0204328A70416A00294FF00001BB
:100E8400C1601CBF8022FFF7FFBE70474068022884
:100E940007D0012818BF704740F2C840C2F20000D2
:100EA40003E040F2CC40C2F200000121016070472F
:100EB40000000068000000680000006000010C08E9
:100EC40000000068000000680000007000010908CC
:100ED400000000680000006800000008000102082B
:100EE40000000068000000685000000000010108D4
:100EF40000000020000000200000006000010C033E
:100F04000000002000000020000000700001090320
:100F14000000002000000020000000080000020380
:100F24000000002004000020500000000000010325
:100F340004000000400F0000000000000000010059
:100F4400080100000000010000030000000001058A
:100F54000D060000000001050E060000040000005C
:100F6400E410000008000000B40E000002000000BD
:100F7400D4100000AA010000AB010000AC01000085
:100F8400AD01000001000200080010002000000074
:100F940098040020A00F00001010000007000000BB
:100FA4000200000000000000000000000C0000002F
:100FB400000000000C000000010000000C00000014
:100FC400020000000C00000003000000000000000C
:100FD40000000000910E000000000000E40F00007B
:100FE40000000000010000000000000000000020DC
:100FF4000F000000FFFF00000000000000000000E0
:1010040000000000FFFF000000000000FF030000DC
:101014003B0700005B070000D7020000F303000059
:10102400B50200003F0300004D0300004507000027
:1010340057070000530700000000000800000008E4
:10104400001200000000000090A1000110A20001A5
:1010540010A2000190A2000190A2000190A1000141
:10106400C0A1000140A2000140A20001C0A20001F1
:10107400C0A20001C0A1000110A1000110A1000143
:1010840004A1000100A1000180A1000104A200014B
:1010940000A2000184A2000180A2000180A100013D
:1010A400E0A1000160A2000160A20001E0A1000132
:1010B400000000680000006800000070000000707C
:1010C4000000006000000060000600200000002016
:1010D40000000068000000682000002020000020BC
:1010E40000000068000000680001000800000068BB
:1010F40000000068000100082000002020000020FB
:10110400000000033C040020E00400200000000371
:1011140000000306362E332E30004275696C7420AD
:10112400776974682052656E6573617320416476D3
:10113400616E63656420466C657869626C652053F2
:101144006F667477617265205061636B61676520B7
:1011540076657273696F6E20362E332E3000000070
:020000040100F9
:04A10000FFFFFFFF5F
:020000040100F9
:04A20000FFFDFFFF60
:020000040100F9
:04A28000F8F8FFFFEC
:04000005000007A947
:00000001FF
