:020000040000FA
:10000000000400208D030000910000008D0000001E
:100010008D0000008D0000008D0000008D000000AC
:100020000000000000000000000000008D00000043
:100030008D000000000000008D0000008D00000019
:04004000AD07000008
:020000040000FA
:1000440040EA01039B0703D009E008C9121F08C056
:10005400042AFAD203E011F8013B00F8013B521ED6
:10006400F9D27047D2B201E000F8012B491EFBD24D
:1000740070470022F6E710B513460A4604461946AF
:10008400FFF7F0FF204610BD00BE70472DE9F04198
:1000940046F22018C4F20008B8F80000B8F820109E
:1000A40040F2244501EA0006B7B20024C2F200057A
:1000B40027FA04F0C00704D055F8241009B12046EB
:1000C40088470134102CF3D1A8F81060BDE8F08102
:1000D400B0B543F22404C4F208040025C820012169
:1000E400257100F082F8257020780028FCD1207852
:1000F40040F00200207000BF20788007FCD400206C
:1001040004F8020C14F8020C0028FBD1002004F1BE
:100114001C0100BF11F8102002F07F0201F810202A
:1001240011F91020002AFBD401300328F2D1012058
:1001340000F00BF84EF2BB420021C4F20102012090
:100144001170BDE8B04000F027B880B50122EFF38C
:10015400108182F3108840F28042C2F2000232F829
:1001640010308BB94EF2FE3C40F6CC13C4F2010CB5
:10017400C0F20003BCF800E033F8103043EA0E0389
:1001840043F42543ACF8003032F81030013322F840
:10019400103081F3108880BD0122EFF3108182F3C7
:1001A400108840F28042C2F2000232F8103023B1CB
:1001B40032F81030013B22F8103032F810208AB99E
:1001C4004EF2FE3CC4F2010C40F6CC12BCF80030F6
:1001D400C0F2000232F8100043F4254222EA000083
:1001E400ACF8000081F31088704740F22042C2F25C
:1001F4000002126801FB00F041F20021C0F27A0112
:100204008A420FD340F6FF01C0F23D0111444DF67E
:100214008362C4F21B32A1FB0212110DA0FB010187
:10022400E9B11FE04CF60021C3F69A3148F63813C1
:10023400C0F24103B1FBF2F1984207D24FF47A7253
:1002440000FB02F0B0FBF1F0800808E08900B0FB8D
:10025400F1F0984206D24FF47A7100FB01F028B114
:1002640000F003BA4FF0FF3000F0FFB97047704759
:10027400022818BF704740F2784040F66011C2F27D
:100284000000C0F2000100F05FB8406846F200319F
:10029400C4F2000151F820204EF2001C22F48032F6
:1002A40041F8202051F8201000F01F0201234009DA
:1002B400CEF2000C03FA02F20CEB8003BFF35F8F63
:1002C400C3F880214CF8202000207047F0B54B681B
:1002D4000246436046F20030C4F200004FF0000EC4
:1002E40050F823C040F823E04B690C78D3608B6945
:1002F4004FF60057136144EA0003CFF6FF771472F8
:1003040003F807E00D7B0E7C2D010C7A45EAC61636
:100314002643DE55536840F823C0506800280CD4A7
:1003240049784EF200430901CEF20003C15440F271
:100334009041C2F2000141F8202044F25531C0F24C
:10034400490100201160F0BD80B545F25422C5F288
:100354004F020260084600F061FA002080BDC8B276
:10036400012383409BB24FF4803C002A08BF0CFA5F
:1003740000F34FF4FF5000EAD1010822C4F208024E
:1003840000208B507047000000F01AF800F007FAC4
:10039400FEE74EF22000C4F201008179006840F2C9
:1003A4000042C2F20002C0F3026052F8211021FAA6
:1003B40000F040F22041C2F20001086070470000E2
:1003C40010B54EF60850CEF200004FF47001C0F89C
:1003D400801040F20001C0F20001016000200024FE
:1003E400FFF746FF00F06CF80120FFF741FF40F2F1
:1003F4000000C2F2000080F30A88002000F032F806
:10040400FFF7C7FFFFF764FE0320FFF79EFE40F6E9
:100414001050C4F208004FF6FF7100BF20F814100A
:1004240001340C2CFAD10320FFF7B6FE0320FFF7AA
:100434008CFE0420C4F20E00002101604160816042
:10044400C1600320FFF7A8FE0220FFF711FF01207F
:1004540000F008F800F0D4F80020BDE8104000F0E7
:10046400CDB80000F0B581B040F6B015C0F200057B
:100474002E68044676B16868071D00BF7879844207
:1004840004D157E90101091AFFF7F3FD013E07F111
:100494000C07F3D1AE6886B1E86800F1080500BF27
:1004A4006879844205D155E902022968121AFFF7D6
:1004B400C7FD013E05F11005F2D101B0F0BD000009
:1004C4002DE9F0414EF2FE34C4F201044AF2035025
:1004D4004CF200152080C4F201050120A88000BF61
:1004E400A8880028FCD147F200010120C4F20001D1
:1004F40028808860086040F2004642F6005041F2CD
:100504000022C2F20006C0F23110C0F27A02C6E93B
:10051400000243F200604FF40041C0F26E10C6E9DD
:1005240002104CF20020C0F6EB304EF2200731618D
:10053400C4F201077061B879396856F82000C1F334
:10054400026140F22048C840C2F20008C8F8000026
:1005540000206075092087F8820094F8820018B999
:1005640094F88300800744D094F8820050B90120A5
:1005740084F88200C8200121FFF737FE94F8820036
:100584000128FBD1002084F8830084F88200002035
:10059400B87400BF387F0007FCD543F202103881DD
:1005A4000020B872387F8006FCD50320287741F2FA
:1005B4002120C2F2010038600520B871B879396889
:1005C40056F82000C1F30261F022C840C8F80000C8
:1005D40042F20800C4F20000F1210171012101700E
:1005E40002714FF42540397487F832102080BDE839
:1005F400F0814FF47A70FFF73AFEC8E770470000C5
:1006040070B584B048F248040320C4F20004FFF734
:100614009CFD40F6C811C0F200010E686FF0FF00A7
:1006240020604FF0FF3003900290019016B16FF0FC
:10063400010001904EF28032002001A9CEF20002A6
:1006440051F8203004EB8005AB6242F820300130D1
:100654000328F5D10320FFF79FFD26B146F20030B1
:10066400C4F20000066004B070BD01380028FCD15B
:10067400704700002DE9F04F81B00446008800283F
:100684005AD043F240084EF2BB4B0025C4F208088E
:100694000FF2AC0AC4F2010B4FF00109002700BFAE
:1006A40060685AF8272000EBC500416891423CD1AC
:1006B40000689BF8001000F0B85009FA07F6B0F192
:1006C400807F06EA010015D150B90120FFF73DFDF6
:1006D4009BF8000030438BF800000120FFF75CFD1D
:1006E40018F91700002820D418F8170040F08000EB
:1006F40015E000BF50B10120FFF727FD9BF8000073
:10070400B0438BF800000120FFF746FD18F91700ED
:10071400B0F1FF3F09DC18F8170000F07F0008F87B
:100724001700C8200121FFF760FD0137032FB7D15F
:10073400208801358542B1D301B0BDE8F08F00BFF8
:1007440002040000030400000404000040F21C43FF
:10075400C2F2000318684FF48061B0FA80F04209D5
:1007640040F27840C2F200001A60FFF7F8BD0000C2
:1007740040F26444C2F2000440F68C11C0F200015D
:100784002046FFF7A3FD2046FFF77FFD44F24024F7
:10079400C0F20F0401202146FFF727FDFAE780B5D8
:1007A400FFF7E6FF002080BD70B582B0EFF3038051
:1007B40046F200356FF35F20A0F1100440F2904040
:1007C400C2F2000050F82400C4F20005017A4FF68A
:1007D40000522943CFF6FF72895C01F00306032E11
:1007E40007D055F8241021F4803145F8241055F829
:1007F4002410C16829B1027A0069CDE90002684673
:100804008847032E07D155F8240020F4803045F89A
:10081400240055F8240002B070BD000070B50446F1
:10082400FFF728FF40F28C4CEFF31080012181F395
:100834001088C2F2000CDCF8001039B940F60351FC
:10084400C4F2080100220A7040220A70DCF8001089
:100854000131CCF8001080F31088208818B340F6DA
:10086400000E0021C4F2080E606800EBC10250F8CB
:1008740031305268DD034FEA1220D2B20BD50EEBB1
:10088400801555F8226026F4803645F8226023F45A
:10089400803645F822600EEB8010013140F822309A
:1008A40020888142E0D30120EFF3108180F3108887
:1008B400DCF8000020B1DCF800000138CCF80000BE
:1008C400DCF8000038B940F60350C4F208000022F6
:1008D40002708022027081F3108870BD00000068ED
:1008E400000000680000006000010C0800000068BF
:1008F40000000068000000700001090800000068A2
:100904000000006800000008000102080000006800
:1009140000000068440000000001010800000020FD
:10092400000000200000006000010C030000002013
:1009340000000020000000700001090300000020F6
:100944000000002000000008000002030000002056
:100954000000002044000000000001030400000027
:100964006C090000000000000040000000000000CE
:100974000000010008010000000001000003000065
:100984000400000000040000060C00000000000049
:1009940000000000030000000000000051070000F8
:1009A40000000000AC09000000000000040000008A
:1009B400800A000008000000E008000002000000B7
:1009C400700A000007000000010002000800100087
:1009D400200000000000000800000008000C0000D7
:1009E4000000000090A1000110A2000110A200016B
:1009F40090A2000190A2000190A10001C0A10001F9
:100A040040A2000140A20001C0A20001C0A2000156
:100A1400C0A1000110A1000110A1000104A1000166
:100A240000A1000180A1000104A2000100A20001B4
:100A340084A2000180A2000180A10001E0A10001C4
:100A440060A2000160A20001E0A1000100000068B2
:100A540000000068000000700000007000000060EA
:100A64000000006000060020000000200000006874
:100A74000000006800000020000000200000006862
:100A84000000006800010008000000680000006821
:100A94000001000800000020000000200000000306
:100AA4001C0400209404002000000003000003063E
:100AB400362E332E30004275696C74207769746861
:100AC4002052656E6573617320416476616E63655F
:100AD4006420466C657869626C6520536F66747730
:100AE400617265205061636B61676520766572731E
:0C0AF400696F6E20362E332E300000009B
:020000040100F9
:04A10000FFFFFFFF5F
:020000040100F9
:04A20000FFFDFFFF60
:020000040100F9
:04A28000F8F8FFFFEC
:040000050000038D67
:00000001FF
